:020000021000EC
:10C000000000022001F001005DF001002DBF0200E0
:10C0100061F0010063F0010065F001000000000024
:10C020000000000000000000000000000D1E0200E3
:10C0300069F00100000000002D1E02009995030028
:10C04000316803006FF001008D680300415D03005B
:10C050006FF001006FF00100A95403006FF00100C0
:10C0600039650300916503006FF00100595B03001F
:10C070006FF00100355003006FF001006FF0010018
:10C08000416603002D9C03006FF001006FF001007A
:10C090006FF001006FF0010005EC02006FF001008D
:10C0A0006FF001006FF001006FF00100E96503001F
:10C0B0006FF001006FF001000000000000000000C0
:10C0C0006FF001006FF001006FF00100C15D03002F
:10C0D000095C03006FF001006FF00100FD750300C3
:10C0E0006FF00100000000000000000000000000F0
:10C0F000000000006FF0010000000000B95C0300C8
:10C10000000000000000000000000000000000002F
:10C11000000000000000000000000000000000001F
:10C12000000000000000000000000000000000000F
:10C1300000000000000000000000000000000000FF
:10C1400000000000000000000000000000000000EF
:10C1500000000000000000000000000000000000DF
:10C1600000000000000000000000000000000000CF
:10C1700000000000000000000000000000000000BF
:10C1800000000000000000000000000000000000AF
:10C19000000000000000000000000000000000009F
:10C1A000000000000000000000000000000000008F
:10C1B000000000000000000000000000000000007F
:10C1C000000000000000000000000000000000006F
:10C1D000000000000000000000000000000000005F
:10C1E000000000000000000000000000000000004F
:10C1F000000000000000000000000000000000003F
:10E00000EFBEADDE000000000000000000000000D8
:10E010000000000000000000000000000000000000
:10E0200000000000000000000000000000000000F0
:10E0300000000000000000000000000000000000E0
:10E0400000000000000000000000000000000000D0
:10F0000000F036B80F484FF00701884385460E4898
:10F0100080470E48016841F470010160BFF34F8FD3
:10F02000BFF36F8F00F026B809480A490A4A8842A0
:10F0300007D0521A05D0037801300B700131013A24
:10F04000F9D17047000002207177030088ED00E0DD
:10F0500040490600582700206C270020FEE7FEE705
:10F06000FEE7FEE7FEE7FEE7FEE7FEE7FEE7FEE778
:10F07000FFF7C8BF314932480A1A02D0072291432C
:10F080008D46304930480A1A06D00722914381F351
:10F090000988022282F314882C482D492D4A00F059
:10F0A0003CF82D482D492E4A00F037F82D482E49BE
:10F0B0002E4A00F032F82E482E492F4A00F02DF843
:10F0C0002E482F492F4A00F028F82F482F49304A60
:10F0D00000F023F82F483049304A00F01EF830483D
:10F0E0003049002200F024F82F483049002200F077
:10F0F0001FF82F4A90471F481F49884205D00268D1
:10F10000043003B4904703BCF7E700208646EC4682
:10F1100000200021274A9047FEE7884207D0521A74
:10F1200005D0037801300B700131013AF9D17047F5
:10F13000884202D002700130FAE7704700000220D6
:10F1400000F80120000002200000022084100700C7
:10F150006C270020302D0020B8F10100B8F101002B
:10F1600050470600841007006C2700206C27002001
:10F17000C8490600C8490600C8490600C849060033
:10F18000C8490600C8490600C8490600C849060023
:10F190008410070048160700302D0020302D002075
:10F1A000302D002068350120683501206C350120A4
:08F1B00029F0010015F2010035
:10F1B8000048704760350120FEE7000041DF7047D6
:10F1C80008B50DF09DFC0028FBD101F08BF9F8E79C
:10F1D80000B50B4A0B490C4883B00123CDE9003236
:10F1E80000234FF4807201F005F8012802D103B022
:10F1F8005DF804FB042003B05DF804EB0BF0F2B8F3
:10F20800302D0020C8490600C9F10100F0B5CDB085
:10F2180015F0D0FC002840F08180444D2B689847B9
:10F22800434B9B6C9847FFF7D3FF4248424B434AF6
:10F238004349009043481FF0E7FF012020F022F8DF
:10F2480018F016FC4FF080533F4AD3F8A4100091F1
:10F258003E4B202104A81EF0F2FF04A81CF062FF18
:10F2680018F04EFB19F0E4FC19F022FD002858D1E3
:10F2780018F066FC364B93E80300ADF80C100290CA
:10F2880020F066FA07462EF0CDFD324A324906468E
:10F298000CA81EF0E8FF0CAB2C4A3049044618189D
:10F2A8001EF0E1FF0CAB044418192D4A2D491EF03D
:10F2B800DAFF0CAB044418192B4902AA1EF0D3FF3D
:10F2C8000CAB0444181929493A461EF0CCFF0CAB84
:10F2D80004441819264932461EF0C5FF0CAB0444F5
:10F2E8001819244A24491EF0BEFF244B244904441B
:10F2F8002448181AC0080004142240F004000DF035
:10F30800DDFF6B6821460CA8984701200AF0C0FF72
:10F3180019F0AAF90F200BF065F8FBE70BF062F87B
:10F328007BE713200BF05EF8A2E700BF98270020C8
:10F338000C2800207DE40200C9E602008DE60200E8
:10F34800258403000D840300D04906007C4A06008A
:10F35800604A0600684A0600DC490600F0490600D3
:10F36800884A0600FC490600084A0600484A060082
:10F37800184A0600244A0600304A0600604806007B
:10F38800504A06000848060008B50FF053FB30B98C
:10F3980030BF094B1868BDE8084001F069B9FFF7AC
:10F3A8000DFF0028F5D00BF01DF8034B1868BDE8D9
:10F3B800084001F05DB900BF302D002018F0D4BB23
:10F3C80000F108034FF0FF310022C0E90131C0E924
:10F3D80003330260704700BF00230361704700BF1A
:10F3E80043689A688A60026810B49C684B6001326E
:10F3F800616099605DF8044B08610260704700BF66
:10F4080030B40D686B1C10D000F108031C465B6813
:10F418001A68AA42FAD902684B60013299608C6076
:10F428006160086130BC0260704704696368F2E794
:10F43800036910B4D0E901125C688A6084425160A3
:10F4480008BF5A601A685DF8044B0021013A01614F
:10F458001A601868704700BFF8B5074616460D468B
:10F4680051B100FB01F0503002F0C8FB044668B30C
:10F4780000F15003036005E0502002F0BFFB044692
:10F4880020B32460C4E90F7502F038FDD4E90F13E6
:10F49800226803FB01F1CB1A114461600021134477
:10F4A800A163FF2184F84410C4E9022384F84510BD
:10F4B80004F11000FFF784FF04F12400FFF780FF38
:10F4C80002F026FD84F84C602046F8BD0024204652
:10F4D800F8BD00BFF8B5064650200D4602F08EFB79
:10F4E800044620B300272060C0E90F6702F006FD3C
:10F4F800D4E90F312268A26001FB03F3591A1344BF
:10F5080063600A44FF23A763E26084F8443004F18F
:10F51800100084F84530FFF753FF04F12400FFF78B
:10F528004FFF02F0F5FC022384F84C30A563204617
:10F53800F8BD00BF2DE9F047044684B01F4601928C
:10F54800884600F1240602F0D9FCA26BE36BDFF8D1
:10F5580030939A424FF0000A7AD3022F00F0E480E9
:10F56800019D002D00F00D8102ADBAF1000F00F0F1
:10F57800D78002F0CDFC01F0ABF902F0BFFC94F8A3
:10F588004430FF2B04BF002384F8443094F84530FE
:10F59800FF2B04BF002384F8453002F0B9FC01A911
:10F5A800284601F0EBFD002840F0F18002F0A6FCAF
:10F5B800A26BE36B9A425FD002F0AAFC02F09EFCB9
:10F5C80094F8452055B2002D04DC11E06A1ED3B230
:10F5D80055B26BB1636A304653B101F071FD002832
:10F5E800F4D001F0FFFD6A1ED3B255B2002BF1D161
:10F5F800FF2384F8453002F08BFC02F07FFC94F87E
:10F60800442055B2002D14DD04F1100A03E06A1EEF
:10F61800D3B255B26BB12369504653B101F050FDD6
:10F628000028F4D001F0DEFD6A1ED3B255B2002BDB
:10F63800F1D1FF2384F8443002F06AFC01F004FAA7
:10F6480002F05CFCA26BE36B9A424FF0010A84D291
:10F65800226CA56B002A40F0E2802668002E00F09C
:10F66800F4800135A563636A002B79D102F050FC60
:10F67800012004B0BDE8F08704F1100A02F048FC4C
:10F688000199504601F0A0FC02F038FC94F845308E
:10F698005DB2002D04DC11E06B1EDAB25DB26AB116
:10F6A800636A304653B101F00BFD0028F4D001F035
:10F6B80099FD6B1EDAB25DB2002AF1D1FF2384F8FE
:10F6C800453002F025FC02F019FC94F844305DB294
:10F6D800002D04DC11E06B1EDAB25DB26AB1236959
:10F6E800504653B101F0ECFC0028F4D001F07AFD4B
:10F6F8006B1EDAB25DB2002AF1D1FF2384F84430E0
:10F7080002F006FC01F0A0F9002899D14FF08053CF
:10F71800C9F8043040BFBFF34F8FBFF36F8F8FE737
:10F72800284601F01FFD24E7226CA56B002A94D01F
:10F738004146E0681EF0CBFD226CE36851429B1AFB
:10F748002268E360934204D263680B44E360022FAB
:10F7580087D1002D86D10123A363636A002B85D04E
:10F7680004F1240001F0ACFC00283FF47FAF444BC7
:10F778004FF080525A6040BFBFF34F8FBFF36F8F77
:10F7880074E702F0C5FB284604B0BDE8F08702F034
:10F79800B5FB94F845305DB2002D14DD04F1240664
:10F7A80003E06B1EDAB25DB26AB1636A304653B1E8
:10F7B80001F086FC0028F4D001F014FD6B1EDAB2CB
:10F7C8005DB2002AF1D1FF2384F8453002F0A0FB96
:10F7D80002F094FB94F844305DB2002D14DD04F17E
:10F7E800100603E06B1EDAB25DB26AB123693046D7
:10F7F80053B101F065FC0028F4D001F0F3FC6B1E56
:10F80800DAB25DB2002AF1D1FF2384F8443002F065
:10F818007FFB01F019F9002004B0BDE8F08707BBB1
:10F828004146A0681EF053FDA368216C62680B4432
:10F838009342A360FFF415AF0135A563636A22689C
:10F84800A260002B3FF412AF8AE76068013501F02F
:10F8580041FDA563636A6660002B81D1002886D1CB
:10F8680004E74146E0681EF032FD226CE36851422D
:10F878009B1A2268E3609342BFF469AF64E700BF54
:10F8880000ED00E070B50646502002F0B7F90446D6
:10F8980060B3002501232060C0E90F3502F02EFB7C
:10F8A800D4E90F232168A56303FB02F2D31A0B44A2
:10F8B8000A44C4E90213FF2384F84430626084F8E0
:10F8C800453004F11000FFF77BFD04F12400FFF739
:10F8D80077FD02F01DFBC4E9005584F84C60E56033
:10F8E8002B462A4629462046FFF724FE204670BDAF
:10F8F8002DE9F043044683B016469946EFF3118884
:10F90800A02282F31188806BE26B904223D3022BF2
:10F9180005D0002088F3118803B0BDE8F08394F87F
:10F928004550226CA76B6DB2DAB1E0681EF0CFFCCF
:10F93800226CE1682068891A8142E160C2F1000204
:10F9480005D261680A44E260B9F1020F0CD1012FB7
:10F9580038BF012709E094F84550226CA76B6DB2B7
:10F9680082B92368002B2CD001376B1CA7631AD0EF
:10F9780001356DB284F84550012088F3118803B031
:10F98800BDE8F08323BBA0681EF0A1FCA368226C2D
:10F9980013446268A360934224BF2368A3600137BD
:10F9A8006B1CA763E4D1636A002BE5D004F1240043
:10F9B80001F086FB0028DFD0002EDDD0012030606A
:10F9C800A8E76068019301F085FC019B6360CBE7C1
:10F9D800E0681EF07CFC226CE1682068891A81428C
:10F9E800E160C2F10002AFD2ABE700BF10B582B050
:10F9F800EFF31184A02383F31188836BC26B9A42BF
:10FA08000FD990F845200133FF2A836353B20DD0F4
:10FA180001335BB280F84530012084F3118802B0CD
:10FA280010BD002084F3118802B010BD436A002B7A
:10FA3800F2D02430019101F043FB0028ECD0019969
:10FA48000029E9D001200860ECE700BF2DE9F04368
:10FA5800044685B00F46019202F050FAA56B002DBE
:10FA680040F01D81019B002B00F0CE8002A801F020
:10FA780079FBDFF8788204F1240602F049FA00F0F5
:10FA880027FF02F03BFA94F84430FF2B04BF002311
:10FA980084F8443094F84530FF2B04BF002384F8E1
:10FAA800453002F035FA01A902A801F067FB0028E9
:10FAB80059D102F023FAA36B002B40F0AB8002F07F
:10FAC80027FA0199304601F07FFA02F017FA94F804
:10FAD80045305DB2002D04DC11E06B1EDAB25DB278
:10FAE8006AB1636A304653B101F0EAFA0028F4D0EB
:10FAF80001F078FB6B1EDAB25DB2002AF1D1FF2368
:10FB080084F8453002F004FA02F0F8F994F8443029
:10FB18005DB2002D14DD04F1100903E06B1EDAB2AA
:10FB28005DB26AB12369484653B101F0C9FA0028A9
:10FB3800F4D001F057FB6B1EDAB25DB2002AF1D1A6
:10FB4800FF2384F8443002F0E3F900F07DFF002839
:10FB580051D14FF08053C8F8043040BFBFF34F8FE6
:10FB6800BFF36F8F47E002F0C9F994F845305DB2F2
:10FB7800002D04DC11E06B1EDAB25DB26AB1636A73
:10FB8800304653B101F09CFA0028F4D001F02AFB6A
:10FB98006B1EDAB25DB2002AF1D1FF2384F845303A
:10FBA80002F0B6F902F0AAF994F844305DB2002DDB
:10FBB80014DD04F1100903E06B1EDAB25DB26AB11C
:10FBC8002369484653B101F07BFA0028F4D001F0CC
:10FBD80009FB6B1EDAB25DB2002AF1D1FF2384F86B
:10FBE800443002F095F900F02FFF02F087F9A36B7B
:10FBF80053B102F08DF902F081F9A56B002D4ED1B9
:10FC0800019B002B7FF439AF02F082F9002005B088
:10FC1800BDE8F08302F07CF902F070F994F8453001
:10FC28005DB2002D04DC11E06B1EDAB25DB26AB180
:10FC3800636A304653B101F043FA0028F4D001F06A
:10FC4800D1FA6B1EDAB25DB2002AF1D1FF2384F833
:10FC5800453002F05DF902F051F994F844305DB294
:10FC6800002D14DD04F1100903E06B1EDAB25DB259
:10FC78006AB12369484653B101F022FA0028F4D04A
:10FC880001F0B0FA6B1EDAB25DB2002AF1D1FF239F
:10FC980084F8443002F03CF900F0D6FEABE7226C61
:10FCA80052B1E168636811449942E16024BF216858
:10FCB800E16038461EF00BFB013DA56323692BB9B3
:10FCC80002F026F9012005B0BDE8F08304F1100028
:10FCD80001F0F6F90028F3D0044B4FF080525A6037
:10FCE80040BFBFF34F8FBFF36F8FE9E700ED00E030
:10FCF8002DE9F043044685B000F12406019102F095
:10FD0800FDF8A36BDFF8D8820027B946002B40F036
:10FD1800D380019D002D00F0378102ADB9F1000FAD
:10FD280000F0DA8002F0F4F800F0D2FD02F0E6F814
:10FD380094F84430FF2B04BF002384F8443094F82F
:10FD48004530FF2B04BF002384F8453002F0E0F86B
:10FD580001A9284601F012FA00285DD102F0CEF878
:10FD6800A36B002B40F0C48002F0D2F82368002B6C
:10FD780000F019810199304601F026F902F0BEF829
:10FD880094F845305DB2002D04DC11E06B1EDAB248
:10FD98005DB26AB1636A304653B101F091F9002847
:10FDA800F4D001F01FFA6B1EDAB25DB2002AF1D16D
:10FDB800FF2384F8453002F0ABF802F09FF894F87E
:10FDC80044305DB2002D14DD04F1100903E06B1E10
:10FDD800DAB25DB26AB12369484653B101F070F9ED
:10FDE8000028F4D001F0FEF96B1EDAB25DB2002AE9
:10FDF800F1D1FF2384F8443002F08AF800F024FEA1
:10FE0800002851D14FF08053C8F8043040BFBFF3E9
:10FE18004F8FBFF36F8F47E002F070F894F84530CA
:10FE28005DB2002D04DC11E06B1EDAB25DB26AB17E
:10FE3800636A304653B101F043F90028F4D001F069
:10FE4800D1F96B1EDAB25DB2002AF1D1FF2384F832
:10FE5800453002F05DF802F051F894F844305DB294
:10FE6800002D14DD04F1100903E06B1EDAB25DB257
:10FE78006AB12369484653B101F022F90028F4D049
:10FE880001F0B0F96B1EDAB25DB2002AF1D1FF239E
:10FE980084F8443002F03CF800F0D6FD02F02EF869
:10FEA800A36BEBB102F034F802F028F8A36B4FF023
:10FEB8000109002B3FF42DAF2268013BA363002A00
:10FEC80000F08A802369002B76D102F021F80127FF
:10FED800384605B0BDE8F083284601F043F921E72C
:10FEE80002F016F8002F48D1384605B0BDE8F08377
:10FEF80002F00EF802F002F894F845305DB2002DD9
:10FF080004DC11E06B1EDAB25DB26AB1636A304696
:10FF180053B101F0D5F80028F4D001F063F96B1E55
:10FF2800DAB25DB2002AF1D1FF2384F8453001F03E
:10FF3800EFFF01F0E3FF94F844305DB2002D14DDCB
:10FF480004F1100903E06B1EDAB25DB26AB12369ED
:10FF5800484653B101F0B4F80028F4D001F042F952
:10FF68006B1EDAB25DB2002AF1D1FF2384F8443067
:10FF780001F0CEFF00F068FD96E701F0BFFF616A6F
:10FF880049B9606801F0D6F901F0C2FF0027384688
:10FF980005B0BDE8F083236B60681968C1F10701FB
:10FFA80001F0C8F9F0E701F0A9FF606801F04CF929
:10FFB800074601F0ADFFDDE604F1100001F080F81E
:10FFC800002882D0064B4FF080525A6040BFBFF3E2
:10FFD8004F8FBFF36F8F78E701F0E6F9606071E744
:10FFE80000ED00E02DE9F0410446EFF31188A0236D
:08FFF80083F31188856B25B924
:020000022000DC
:10000000284688F31188BDE8F08190F844701646C0
:10001000026C7FB262B9013D7B1CA56317D001372A
:100020007FB284F84470012088F31188BDE8F08124
:100030000846E168636811449942E16024BF216881
:10004000E1601EF048F9013D7B1CA563E7D12369FF
:10005000002BE8D004F1100001F036F80028E2D0BF
:10006000002EE0D001203060CBE700BF0000000090
:100070001B4B5A68904218D0DA6890421ED05A69D9
:1000800090421DD0DA6990421CD05A6A90421BD02F
:10009000DA6A90421AD05A6B904219D0DA6B9042C9
:1000A00008BF072202D001F04BBE00229FED0A7B61
:1000B00003EBC20383ED007B01F042BE0122F5E7B2
:1000C0000222F3E70322F1E70422EFE70522EDE73E
:1000D0000622EBE7AFF30080000000000000000004
:1000E000382D0020124B1A687AB19A6862B11A69E9
:1000F00092B19A6992B11A6A92B19A6A92B11A6BE4
:1001000092B19A6B92B17047012203EBC20C43F893
:100110003210CCF8040070470222F6E70322F4E71D
:100120000422F2E70522F0E70622EEE70722ECE7D9
:10013000382D002070B505460E46144601F0E2FE4B
:1001400095F84430FF2B04BF002385F8443095F820
:100150004530FF2B04BF002385F8453001F0DCFE5D
:10016000AB6B002B43D001F0CDFE95F845305CB26F
:10017000002C14DD05F1240603E0631EDAB25CB244
:100180006AB16B6A304653B100F09EFF0028F4D08C
:1001900001F02CF8631EDAB25CB2002AF1D1FF2321
:1001A00085F8453001F0B8FE01F0ACFE95F844301A
:1001B0005CB2002C14DD05F1100603E0631EDAB218
:1001C0005CB26AB12B69304653B100F07DFF002864
:1001D000F4D001F00BF8631EDAB25CB2002AF1D160
:1001E000FF2385F84430BDE8704001F095BE2246FB
:1001F000314605F1240000F027FFB4E72DE9F84F60
:100200009600804630460D46994601F0FBFC0028DA
:1002100000F0AA800746582001F0F4FC04460028AC
:1002200000F0AF80076332463846A5211EF07CF807
:100230002B7884F834302B78D4F830B0002B35D0BC
:100240006B7884F835306B78002B2FD0AB7884F83E
:100250003630AB7853B3EB7884F83730EB782BB388
:100260002B7984F838302B7903B36B7984F83930E3
:100270006B79DBB1AB7984F83A30AB79B3B1EB7918
:1002800084F83B30EB798BB12B7A84F83C302B7AB5
:1002900063B16B7A84F83D306B7A3BB1AB7A84F80A
:1002A0003E30AB7A13B1EB7A84F83F300A9D062DCD
:1002B00028BF06254FF0000A271DE562A5643846D1
:1002C00084F83FA0C4F84CA0043EFFF789F85E44D0
:1002D00004F11800C5F10705FFF782F8C4F850A033
:1002E000A56184F854A0246164624A46414626F020
:1002F000070001F0CFFD0B9B206003B11C6001F0F3
:1003000001FE3B4A3B4D1368013313602B68002B01
:1003100040D0394E33685BB3E06ADFF80481374A76
:10032000374913680133136023640B68834238BF75
:10033000086000EB800008EB80003946FFF754F8B6
:1003400001F0EAFD336813B32A68E36AD26A9A427D
:100350001DD22C4B4FF080525A6040BFBFF34F8FDD
:10036000BFF36F8F012001E04FF0FF30BDE8F88F41
:100370002B68E06ADB6ADFF8A880834298BF2C60B4
:10038000CDE7384601F0DCFC4FF0FF30EEE701200E
:10039000BDE8F88F2C601368012B04D0E06ADFF809
:1003A0008080154EBBE7DFF87880464608F18C095F
:1003B00030461436FFF708F84E45F9D1DFF864905F
:1003C000114E4846FFF700F83046FEF7FDFF0F4894
:1003D000FEF7FAFF0E48FEF7F7FF0E48FEF7F4FFB0
:1003E0000D4BE06AC3F800900C4B1E60024E96E77E
:1003F000102E0020782D0020702E0020202E0020AE
:10040000242E002000ED00E03C2E00205C2E002079
:10041000882E0020742E00207C2D0020802D0020AE
:10042000842D0020282E002070B50446264D01F0B2
:1004300069FD002C3BD0261D3046FEF7FDFFA36A68
:100440001BB104F11800FEF7F7FF204A13680133CF
:1004500013602B68A34221D01D4A206B1368013B17
:10046000136001F06DFC204601F06AFC194B1A681C
:10047000126872B11A68184BD268D26852681A6052
:1004800001F04AFD154B1B6813B12B68A34210D035
:1004900070BD114B4FF0FF321A60F1E71048314642
:1004A000FEF7A2FF0F4A136801331360E8E72C68D8
:1004B000C1E70D4B4FF080525A6040BFBFF34F8FE2
:1004C000BFF36F8F70BD00BF782D0020202E00205D
:1004D000102E00207C2D0020542E0020702E002095
:1004E000882E0020142E002000ED00E070B5044698
:1004F000564E01F007FD002C00F08C80251D28468B
:10050000FEF79AFFA36A1BB104F11800FEF794FFEF
:1005100029464F484F4DFEF767FF94F85430012BA2
:1005200004BF002384F8543001F0F6FC2B68002B44
:1005300061D13368A34200D070BD2B68002B70D10D
:100540004349454A09681268914274D0434B1B687D
:10055000002B72D1424A434813600268424B02EBBF
:100560008204A40091001C59002C34D1541E04EBC9
:10057000840189005D58A100002D62D1941E04EB16
:10058000840189005D58A100002D5AD1D41E04EBCE
:10059000840189005D58A100002D52D1141F04EB85
:1005A000840189005D58A100002D4AD1541F04EB3D
:1005B000840189005958002945D1941F04EB840116
:1005C00089005D58A100002D3BD1073A02EB82045F
:1005D000A40091001C59114403EB81042346616877
:1005E000496861600833994204BF49686160CB681B
:1005F0003360026070BD01F085FC1C4B1A68126804
:1006000052B11A681A4BD268D26852681A6001F067
:1006100083FC8EE7346871E7154B4FF0FF321A60A8
:10062000F5E7144B4FF080525A6040BFBFF34F8F35
:10063000BFF36F8F70BD336070BD094B01221A602C
:1006400070BD2246C7E72246A100C4E7782D0020EE
:10065000742E0020702E0020102E00201C2E002052
:10066000A02E0020242E0020842D00207C2D002090
:10067000542E002000ED00E098B130B51D4D2B68E0
:10068000834283B004460AD001F03CFC1A4B6269F5
:100690009A4207D003B0BDE8304001F03DBC03B042
:1006A00030BD7047A36A154A9342F3D0002BF1D1B5
:1006B000211D08460191FEF7BFFE114AE36A10684A
:1006C000019983420F4888BF136003EB830300EB5B
:1006D0008300FEF789FE2B68E26ADB6A9A42D9D36F
:1006E000094B4FF080525A6040BFBFF34F8FBFF3AA
:1006F0006F8FCFE7782D0020742E00205C2E002015
:10070000242E0020842D002000ED00E02DE9F84388
:100710004FF4007001F076FA002879D00546582091
:1007200001F070FA0446002874D04FF40072A5213D
:10073000056328461DF0F8FD0025544B266B6363C6
:10074000271D3846C4E9125584F8385084F83F50C4
:10075000E562FEF745FE04F11800FEF741FE0723AF
:1007600006F5FE702A464A492565A3612461646244
:1007700084F8545020F0070001F08CFB454B2060BA
:100780001C6001F0BFFB444A444E13680133136000
:100790003368002B4CD0424D2B68002B3FD0E06AD1
:1007A000DFF82C813F4A404913680133136023640A
:1007B0000B68834200D2086000EB800008EB8000E9
:1007C0003946FEF711FE01F0A7FB2B686BB13268CA
:1007D000E36AD26A9A4208D2344B4FF080525A6090
:1007E00040BFBFF34F8FBFF36F8F01F045F9012872
:1007F0000ED1A02383F311882D4A2E4B4FF0FF31E9
:100800001160002228601A60BDE8F84301F054BB73
:10081000BDE8F8832846BDE8F84301F091BA336893
:10082000E06ADB6ADFF8A880834298BF3460B9E7EA
:1008300034601368012B04D0E06ADFF89480184D0F
:10084000B0E7DFF88C80454608F18C09284614355E
:10085000FEF7BAFDA945F9D1DFF87890164D484664
:10086000FEF7B2FD2846FEF7AFFD1448FEF7ACFDDB
:100870001348FEF7A9FD1348FEF7A6FD124BE06AE8
:10088000C3F80090114B1D60054D8BE749444C4562
:10089000F50B0200502E0020102E0020782D002095
:1008A000702E0020202E0020242E002000ED00E0DD
:1008B000542E00209C2E00203C2E00205C2E002078
:1008C000882E0020742E00207C2D0020802D0020FA
:1008D000842D0020282E0020024A13680133136063
:1008E000704700BF1C2E0020014B1868704700BFE6
:1008F0009C2E0020014B1868704700BF9C2E0020E2
:10090000014B1868704700BF102E0020024A136880
:1009100018441060704700BF9C2E00202DE9F04F56
:10092000404B1B6883B0002B46D13F4B1E680136FD
:100930001E60002E4ED0DFF808B1DBF80030B34265
:100940005FD83A4F3B681D68002D65D0DFF8F48012
:10095000DFF8F4A0DFF8F490002522E00191FEF723
:100960006BFDA36A019904F1180013B1FEF764FD51
:100970000199E36AD8F8002003EB830093420AEB65
:10098000800088BFC8F80030FEF72EFDD9F800209F
:100990003B68E16AD26A1B68914228BF0125002B9F
:1009A0003AD03B68DB68DC686368211D9E420846DC
:1009B000D4D2CBF8003004E01D4A1368013300257F
:1009C00013601C4B1B68002B0CBF2846012003B092
:1009D000BDE8F08F154B184A18681168196017495F
:1009E00010600A6801320A601A6812685AB9DFF8A2
:1009F00050B04FF0FF33CBF80030DBF80030B3429B
:100A00009FD90025DDE71B68DFF834B0DB68DB68C1
:100A10005B68CBF8003090E74FF0FF33CBF8003045
:100A2000CFE700BF1C2E00209C2E00207C2D002034
:100A3000182E0020A02E0020802D0020582E0020EF
:100A4000542E0020242E0020842D0020782D0020FC
:100A50002DE9F04F83B001F055FA3A4B1A68013A8C
:100A60001A601B68002B55D1374B1B68002B51D0E7
:100A7000364D2B68002B62D0354EDFF8EC80354FB9
:100A8000DFF8E8904FF0010AEB68DC6804F1040B32
:100A900004F11800FEF7D0FC5846FEF7CDFCE36ADF
:100AA000326803EB83009342594608EB800088BF0D
:100AB0003360FEF799FC3B68E26ADB6A9A4231D305
:100AC000C9F800A02B68002BDED1234B1A681268EE
:100AD000002A2FD01A68214BD268D26852681A6057
:100AE0001F4E346844B10125FFF718FF08B1C9F85B
:100AF0000050013CF8D13460D9F8003053B1194BA3
:100B00004FF080525A6040BFBFF34F8FBFF36F8FDB
:100B1000012000E00020019001F0FEF9019803B0EF
:100B2000BDE8F08F2B68002BAED10B4B1A68126812
:100B3000002ACFD1094B4FF0FF321A60D0E7DFF81F
:100B40002C90CDE71C2E0020102E00205C2E0020C3
:100B5000242E0020782D00207C2D0020542E0020F3
:100B6000182E002000ED00E0842D0020A02E002093
:100B700070B548B9184B4FF080525A6040BFBFF370
:100B80004F8FBFF36F8F70BD144A154D1368154911
:100B9000013313600E68044628680430FEF74CFCED
:100BA0002B68A4195C600FD20F4B186829680431B8
:100BB000FEF72AFC0D4B1A68944238BF1C60FFF701
:100BC00047FF0028D6D070BD094B1868296804314A
:100BD000FEF71AFCF3E700BF00ED00E01C2E00203A
:100BE000782D00209C2E00207C2D0020542E0020EB
:100BF000802D00202DE9F84F374C384E384DDFF866
:100C0000F490DFF8F480DFF8F4B04FF0805A14E08D
:100C100001F078F9F368DF68381DFEF70DFC2B68EA
:100C2000013B2B602368013B236001F075F9386BB1
:100C300001F086F8384601F083F82368002BE7D1ED
:100C4000284B1B68012B06D9CBF804A040BFBFF38B
:100C50004F8FBFF36F8FFEF79BFBD9F80030FBB9C6
:100C6000D8F80030DB6A002BE7D11E4B1B68012B44
:100C7000E3D81D4B1D4A1B6812689B1A012BDCD957
:100C80001B4A136801331360D9F8003083B1D8F8D8
:100C90000030DB6A0BB9134B1B68FFF7D9FECCE7BA
:100CA000D8F80030DB6A002BC7D10E4B1B68C4E7B5
:100CB000D8F80030DB6A002BEFD10A4B1B68012B00
:100CC000EBD8094B1868094B1B68C01A0128E4D9F6
:100CD00018F0BAFFE1E700BF142E0020882E002094
:100CE000102E0020842D0020542E00209C2E002049
:100CF0001C2E0020242E0020782D002000ED00E086
:100D00004B685B682DE9F04F01F10808434508BFC7
:100D1000CB68DFF8D0B0D3F80CA091460E46002780
:100D2000494683B0C14604463A46B0465B68C8F8B7
:100D30000430994504BFD9F80430C8F80430DE689F
:100D40005EB33546EB6A2361286C25602B6BA0608F
:100D5000DBF800C0A86CE361C4E90502AC4505F10D
:100D6000340060601CD00329217329D01878A5288D
:100D70001AD1C3F1010C0CEB030513F8010FA528E0
:100D8000F9D0C5F38F05B245258407F1010704F1B9
:100D9000240411D0D8F80430C8E7DBF80050D1E7BC
:100DA00022731878A528E4D00025B245258407F1E0
:100DB000010704F12404EDD1384603B0BDE8F08FFB
:100DC0000748036801330360AB6A13B14FF00203B5
:100DD00023730191FFF73CFE2B6B01990022C5E7BD
:100DE0001C2E0020782D00202DE9F843314C23687B
:100DF00001332360304B1B688B4254D82F4E0024A4
:100E0000074690460725A646A6F17809013D05EB61
:100E100085030EEB040C59F823303146012207EB11
:100E20008C0043B1FFF76CFF044404EBC4004FEAAD
:100E3000C40E07EB8000143E002DE7D1204B19684B
:100E40000B683BB10222FFF75BFF044404EBC400D4
:100E500007EB80001B4B19680B683BB10222FFF7C0
:100E60004FFF044404EBC40007EB800016490B68F5
:100E70003BB10422FFF744FF044404EBC40007EB3A
:100E8000800012490B681BB10322FFF739FF0444AD
:100E9000B8F1000F02D00023C8F80030FFF7D8FDEA
:100EA0002046BDE8F8830024FFF7D2FD2046BDE8C8
:100EB000F88300BF1C2E0020102E0020FC2D0020E7
:100EC0007C2D0020802D0020882E0020742E0020F4
:100ED0003A4B1B681BB13A4B01221A607047384AE3
:100EE000384830B513600268374B02EB820C4FEA8A
:100EF0008C0C910053F80C40002C46D102F1FF3CC1
:100F00000CEB8C0E4FEA8E0E4FEA8C0153F80E401C
:100F1000002C51D1A2F1020C0CEB8C0E4FEA8E0E7C
:100F20004FEA8C0153F80E40002C45D1A2F1030C7E
:100F30000CEB8C0E4FEA8E0E4FEA8C0153F80E40EC
:100F4000002C39D1A2F1040C0CEB8C0E4FEA8E0E62
:100F50004FEA8C0153F80E4074BB541F04EB840C11
:100F60004FEA8C0CA10053F80C501DBB941F04EBEE
:100F7000840C4FEA8C0CA10053F80C50D5B9073AF9
:100F800002EB8204A40091001C59114403EB810C74
:100F90006346DCF804104968CCF804100833994221
:100FA00008BF4968094B08BFCCF80410C96819602C
:100FB000026030BD2246E8E76246E6E71C2E0020CC
:100FC000A02E0020242E0020842D0020782D00202B
:100FD00070B5174D2B680C4603F11801FEF714FA93
:100FE000144B1E6828680430FEF726FA631C17D0DD
:100FF0002B68A4195C6007D30F4B18682968BDE8FB
:1010000070400431FEF700BA0C4B186829680431AF
:10101000FEF7FAF90A4B1A68944238BF1C6070BD9B
:1010200029680848BDE870400431FEF7DDB900BF0B
:10103000782D00209C2E0020802D00207C2D00206B
:10104000542E0020742E002070B5194D2B680C46CC
:10105000164603F11801FEF7C7F9164B5EB11B687F
:1010600028680430FEF7E8F929681348BDE87040A5
:101070000431FEF7B9B91E6828680430FEF7DCF9C0
:101080002B68A4195C6007D30C4B18682968BDE86D
:1010900070400431FEF7B8B9094B1868296804316B
:1010A000FEF7B2F9074B1A68944238BF1C6070BD56
:1010B000782D00209C2E0020742E0020802D0020F2
:1010C0007C2D0020542E002030B5C368DC6804F16C
:1010D000180583B02846FEF7AFF91C4B1B683BBBD5
:1010E000211D08460191FEF7A7F9194AE36A106825
:1010F00001998342174888BF136003EB830300EB19
:101100008300FEF771F9144BE26A1B68DB6A9A42AE
:1011100082BF124B01201860114B1A68126898BFE9
:10112000002052B90F4B4FF0FF321A6003B030BDB0
:101130000D482946FEF758F9E5E71A68094BD268C9
:10114000D26852681A6003B030BD00BF1C2E002068
:10115000242E0020842D0020782D0020A02E002099
:101160007C2D0020542E00205C2E0020034A044BCE
:1011700012681B68C0E90023704700BF582E00208A
:101180009C2E0020F0B50D4683B0044600F0BAFE58
:101190002B68144A591C10681DD0DFF84CC0D4E9E4
:1011A0000061DCF80070BE4208D0814206D8012000
:1011B000019000F0B1FE019803B0F0BD471ABB42A8
:1011C0000BD91B1A0B44DCF8001012682B600020AE
:1011D000C4E90012ECE70020EAE700232B600120BD
:1011E000E6E700BF9C2E0020582E0020014B012274
:1011F0001A607047A02E0020094B186818B9094BD7
:101200001B6813B1704700207047074A074B1068EE
:101210001B68013B984214BF01200220704700BFA9
:101220005C2E0020A02E0020742E0020102E002006
:10123000054B1B6833B1054B1B68002B0CBF02200C
:101240000020704701207047702E00201C2E0020C7
:1012500070B5044682B0C8B11D4DC36A2A68D26A0F
:10126000934215D28269002A04DB2A68D26AC2F14D
:1012700007028261174E626903EB830306EB830367
:101280009A420ED02B68DB6AE362012002B070BD87
:101290002B68806CDB6A98422CBF0020012002B0D2
:1012A00070BD211D08460191FEF7C6F82A680A4B59
:1012B000D06A1A680199E062904200D9186000EB88
:1012C000800006EB8000FEF78FF80120DEE700BF0C
:1012D000782D0020842D0020242E002068B110B528
:1012E000C36CC16A826C013B914282B00446C36404
:1012F00000D023B1002002B010BD00207047011DB6
:1013000008460191FEF798F8A36C0A4AE362C3F11C
:101310000700A061106801998342074888BF1360E5
:1013200003EB830300EB8300FEF75EF8012002B0BD
:1013300010BD00BF242E0020842D002070B130B5D8
:10134000826CC36A914238BF11468B4283B0044617
:1013500002D0C26C012A02D003B030BD704782694E
:10136000114DC162002A03EB83034269A8BFC1F19A
:10137000070105EB8303A8BF81619A42ECD1011DEF
:1013800008460191FEF758F8084BE06A1A6801997F
:10139000904288BF186000EB800005EB800003B02E
:1013A000BDE83040FEF720B8842D0020242E002018
:1013B000044B1A681AB11968CA6C0132CA641868F9
:1013C000704700BF782D0020F8B5284C06460D4622
:1013D00000F098FD23681B6D23B92368012283F870
:1013E0005420ADB900F098FD00F08CFD23681D6D10
:1013F0001DB123684EB100221A652368002283F8CC
:10140000542000F089FD2846F8BD6A1E1A65F4E7ED
:10141000174B1F6820680430FEF70EF86B1C13D0C2
:101420002368ED195D6015D3124B186821680431EB
:10143000FDF7EAFF104B4FF080525A6040BFBFF3F8
:101440004F8FBFF36F8FCDE721680C480431FDF754
:10145000CBFFEFE70A4B186821680431FDF7D4FF92
:10146000084B1A68954238BF1D60E3E7782D0020CD
:101470009C2E0020802D002000ED00E0742E002026
:101480007C2D0020542E00202DE9F041324C82B0FA
:101490001E4607468846154600F034FD236893F83B
:1014A0005430022B09D02368186D20EA07071F6506
:1014B0002368012283F85420C6B900F02DFD00F006
:1014C00021FD15B123681B6D2B60236893F8543000
:1014D000022B27D0002023680190002283F854209B
:1014E00000F01AFD019802B0BDE8F0811B4B1F68A7
:1014F00020680430FDF7A0FF731C1AD02368F6198A
:101500005E601CD3164B186821680431FDF77CFF20
:10151000144B4FF080525A6040BFBFF34F8FBFF360
:101520006F8FCAE72368196D21EA08010120196548
:10153000D1E721680C480431FDF756FFE8E70B4B73
:10154000186821680431FDF75FFF094B1A6896425D
:1015500038BF1E60DCE700BF782D00209C2E0020E5
:10156000802D002000ED00E0742E00207C2D002056
:10157000542E0020F0B51E4683B004460F46154693
:1015800000F0C0FC0EB1236D336094F8543002219A
:101590006A1EDBB284F85410032A06D8DFE802F092
:1015A000410E0402022B45D02765012B0CD00120EF
:1015B000019000F0B1FC019803B0F0BD226D012B49
:1015C00002F101022265F2D1211D08460191FDF7C9
:1015D00033FF194AE36A106801998342174888BFAC
:1015E000136003EB830300EB8300FDF7FDFE144B58
:1015F0001A681268CAB11A68124BD268D268526867
:101600001A60114BE26A1B68DB6A9A42CFD90F4B12
:101610004FF080525A6040BFBFF34F8FBFF36F8FC0
:10162000C5E7216D0F432765BFE7064B4FF0FF323B
:101630001A60E6E70020BBE7242E0020842D00205E
:101640007C2D0020542E0020782D002000ED00E09D
:1016500030B5044683B0EFF31185A02080F31188E4
:101660000BB1206D186094F854300220013ADBB2BF
:1016700084F85400032A06D8DFE802F0280C04029C
:10168000022B3BD02165012B0AD0012085F3118864
:1016900003B030BD226D012B02F101022265F4D1AD
:1016A000184B1B68B3B1184804F11801FDF79CFEF4
:1016B000164BE26A1B68DB6A9A42E6D9069BFBB1CD
:1016C0000120186085F3118803B030BD226D1143ED
:1016D0002165D8E7211D08460191FDF7ADFE0C4AB2
:1016E000E36A1068019983420A4888BF136003EBDC
:1016F000830300EB8300FDF777FED9E70020C5E701
:10170000054BDDE71C2E00205C2E0020782D0020EC
:10171000242E0020842D0020A02E002070B582B041
:10172000EFF31185A02383F31188022390F854204E
:1017300080F85430036D012A03F10103036503D0DF
:1017400085F3118802B070BD174B1B6804460E4626
:101750008BB1164804F11801FDF746FE144BE26AFE
:101760001B68DB6A9A42EBD9CEB10123336085F363
:10177000118802B070BD011D08460191FDF75CFEA5
:101780000C4BE06A1A680199904288BF18600A4BB6
:1017900000EB800003EB8000FDF726FEDEE7074B41
:1017A00001221A60CCE700BF1C2E00205C2E002016
:1017B000782D0020242E0020842D0020A02E002033
:1017C0002DE9F0431D4EDFF87C9085B04FF0000806
:1017D0000CE0DB68DC681F68251D2846FDF72CFE41
:1017E000636A20469847E369012B0AD033681A6878
:1017F000002AEED1124A11683160136005B0BDE8CD
:10180000F083A3693B449F42294610D3D9F80030A6
:10181000002BEBD0CDE900870294FFF709FD0023F0
:10182000D9F800001A466946FDF788FEDEE7306801
:1018300063602461FDF7E8FDD8E700BFA42E002017
:10184000A82E0020D82E00202DE9F04F854E864D81
:10185000864CDFF820928BB03368D3F800A0BAF141
:10186000000F00F09A80DB68D3F800A0FFF734F88F
:10187000FFF73AF82A688242804600F29F8082454C
:10188000286040F2AF8000222068AAEB0801FEF732
:1018900051FCFFF7DDF840B94FF08053C9F8043030
:1018A00040BFBFF34F8FBFF36F8F2068002202A9A4
:1018B000FEF7D0F80028CFD0029B002B65DB049FF9
:1018C0007B6913B1381DFDF7B7FDFFF70DF82B68E5
:1018D0009842804679D3029BC5F80080092BE4D852
:1018E00001A252F823F000BF1119020011190200E1
:1018F00011190200AB1802006119020083190200DD
:101900001119020011190200AB180200611902003E
:10191000039BBA693F6199182CBF01200020414503
:10192000796055D8A8EB03039A4223D87B6A3846DE
:101930009847FB692068012BB8D10028B6D0002356
:10194000BA690693039B089713440793FFF770FC4B
:10195000002320681A4606A9FDF7F0FD2068A5E7D8
:10196000039BBB6103EB080242457A603F6133D8B9
:10197000002B9AD03E4B391D1868FDF745FD2068B5
:1019800094E7384600F0DCF98FE7039BDDE90401BA
:101990009847029B002B88DB91E7FEF79DFFFEF73F
:1019A000A3FF2A688242804608D8314BC5F80080E0
:1019B0001A681268B2FA82F2520965E7FFF700FF6F
:1019C000C5F80080FFF744F86FE7FFF7F9FE82E7FC
:1019D000434501D90028A9D03068391DFDF714FD11
:1019E000206863E7FFF734F83268D268D2F80CB0A9
:1019F0000BF1040108460191FDF71EFDDBF81C0008
:101A00000199012804D0DBF82430584698474CE768
:101A1000DBF81800CBF810B00AEB00034345CBF815
:101A2000043003D93068FDF7EFFCECE7A8EB0A03BC
:101A3000984211D82368002BE5D000230693CDF8F7
:101A40001CA0CDF820B0FFF7F3FB002320681A4656
:101A500006A9FDF773FDD6E7054B1868FDF7D4FC22
:101A6000D1E700BFA42E0020D42E0020D82E0020C5
:101A7000A82E002000ED00E0F0B5174C83B000F078
:101A800041FA25687DB100F047FA206848B1134A51
:101A9000134914480223CDE9003200238022FEF7C7
:101AA000ADFB03B0F0BD104F104E3846FDF78CFC77
:101AB0003046FDF789FC0E4B1F600E4B2A46102165
:101AC00003201E60FDF7CCFC20600028DBD00A4913
:101AD000FEF708FBD7E700BFD82E0020DC2E002041
:101AE0009C4A060049180200AC2E0020C02E00209F
:101AF000A42E0020A82E0020944A06002DE9F04FC5
:101B0000074683B02C20884616461D4600F07AF81A
:101B1000044688B1DFF8709000F0F4F9D9F800209D
:101B200072B100F0F9F90C9B2760C4E906862562C2
:101B30006362201DFDF754FC204603B0BDE8F08F22
:101B4000DFF848B0DFF848A001925846FDF73CFCAA
:101B50005046FDF739FC094B019AC3F800B0084B19
:101B600010210320C3F800A0FDF77AFCC9F800009B
:101B70000028D6D00349FEF7B5FAD2E7A42E0020FC
:101B8000A82E0020944A0600D82E0020AC2E00205B
:101B9000C02E002030B5144D2C6885B0CCB105297D
:101BA000CDE9001202900BDCFFF742FB022813D0B4
:101BB000002328681A466946FDF7C0FC05B030BD11
:101BC0009C466246002369462046FDF795FE05B017
:101BD00030BD204605B030BD2868089A002369460C
:101BE000FDF7ACFC05B030BDD82E002010B5044682
:101BF00082B000F087F9206A019000F08DF9019819
:101C000002B010BD2DE9F0410546FEF765FE4649DC
:101C10000E68002E3ED0454B1F683D4234D175B34F
:101C200005F108046B071CBF24F0070408345CB3FB
:101C3000DFF808E1DEF800C0A44525D33C4803687E
:101C400003E01A6822B1184613465968A142F8D336
:101C5000B34219D01D460A1B55F8088BC0F8008006
:101C6000102A39D833480468ACEB0102A242CEF8FE
:101C7000002038BF026039430022C3E90021FEF78B
:101C8000E7FE2846BDE8F0810025FEF7E1FE284684
:101C9000BDE8F081284A254C500714BFD31D1346D8
:101CA00002F54842A2F1080222F0070618BF23F00D
:101CB0000703204A0E601846F31A13601F4A1C4996
:101CC00013604FF00047002208604A602760C6E9B1
:101CD0000022C0E90063A0E719194A60144A5C6059
:101CE000144612689142FBD8606804EB0008414535
:101CF0000BD0D1F8048001EB080082420CD00A60BE
:101D00008C4218BF21605968ACE7496800EB0108B4
:101D1000C4F804802146EEE7B242F0D05068126861
:101D20000A6040444860EBE7E02E0020E4F6002023
:101D3000F0F60020ECF60020E42E0020E8F600206B
:101D400040B11F4A50F8043C1268134202D050F8C8
:101D5000081C01B1704710B523EA020382B040F8B5
:101D6000043C184C0190FEF7B7FD0198226850F82A
:101D7000041C154B0A44083822601A461B68984216
:101D8000FBD8546802EB040C604515D04418A342FC
:101D900008D00360824218BF106002B0BDE8104056
:101DA000FEF756BE094C2468A342F2D0D3E90034B2
:101DB0002144C0E90031EDE7214451601046E5E7D8
:101DC000E4F60020E8F60020F0F60020E02E0020E7
:101DD000014B1868704700BFE8F60020014B1868F7
:101DE000704700BFECF600200748006880F30888C1
:101DF00062B661B6BFF34F8FBFF36F8F4FF4F070D1
:101E000080F3118800DF00BF00C00100064B196895
:101E10000868B0E8F04F80F30988BFF36F8F4FF088
:101E2000000080F311887047782D0020EFF30980BF
:101E3000BFF36F8F144B1A681EF0100F08BF20ED10
:101E4000108A20E9F04F10604DF8043D4FF0A000DB
:101E500080F31188BFF34F8FBFF36F8FFFF738F810
:101E60004FF0000080F3118808BC19680868B0E8DA
:101E7000F04F1EF0100F08BFB0EC108A80F30988F5
:101E8000BFF36F8F704700BF782D0020A02383F32E
:101E90001188FEE710B44FF08073064C40F8043C04
:101EA0006FF0020340E9034140E909325DF8044B59
:101EB000443870478D1E02000F4C08B5E02384F8AB
:101EC000223000F06FF80D4B00221A60D4F88830F1
:101ED0000B4A43F47003C4F88830536B43F040431B
:101EE0005363236943F010032361FFF77DFFA023B1
:101EF00083F31188FEE700BF00ED00E0F8F6002054
:101F000000EF00E0A02383F31188024A1368013335
:101F100013607047F8F60020034A1368013B136012
:101F20000BB983F311887047F8F6002070B582B0C2
:101F3000EFF31186A02383F31188184B0022D3F806
:101F40000445C3F80021D3F800310193019BFEF74B
:101F5000CBFC201A20F07F4323F0010320F07F45C3
:101F60009BB96C1E6DB10025FEF7D8FC23460543D6
:101F7000013C002BF8D125B1094B4FF080525A603B
:101F800040BF86F3118802B070BDFFF751F90228F7
:101F9000E7D0FEF7C3FC0546EDE700BF00100140A7
:101FA00000ED00E010B5002012F02CFE094B0A49AC
:101FB00001222024C3F808450220C3F804239A60B4
:101FC0001A60E022C3F8440381F811234FF4003370
:101FD0000B6010BD0010014000E100E0826842B1DA
:101FE00010B5436901680446006998470023A3605F
:101FF00010BD70470EB400B582B0039921B104AB97
:1020000001AA019300F0AAF802B05DF804EB03B056
:10201000704700BF2DE9F84F1546A942DDF828802A
:102020000B9A0E4683469A46C0F094800B460127D1
:10203000B3FBF5F39D4207F10107F9D9574538BFC6
:10204000574612F0010902D1B8F1000F5BD1DBF85D
:102050000810BAF1010F4FF0010406D90AF1FF3A56
:10206000BAF1010F05FB04F4F8D8B6FBF4F39D4276
:1020700005D805FB04F4B6FBF4F39D42F9D9DFF86B
:10208000D8A008E0AC42B4FBF5F319D3DBF8081094
:102090001C46B6FBF3F34A1CCBF80820DBF8002003
:1020A0001AF80300505404FB1366DBE901329A422C
:1020B000E8D35846FFF792FFB4FBF5F3AC42E5D204
:1020C000B9F1000F16D0B8F1000F13D02024474506
:1020D00008F1FF380ED2DBF80830DBF80020591C7D
:1020E000CBF80810D454DBE901329A4204D2B8F19B
:1020F000000FECD1BDE8F88F5846FFF76FFFB8F13D
:10210000000FE4D1F6E793071ED42024DBF8081073
:10211000474501F101029CD2DBF80030CBF80820E2
:102120005C54DBE90131994208F1FF3803D2B8F180
:10213000000FEDD18DE75846FFF750FFDBF8081090
:10214000B8F1000FE4D184E7BAF1000F0CBF3024DE
:102150002024DBE7012771E7A44A0600002900F0EC
:102160009D812DE9F04FDFF898940B7885B00646F5
:1021700090460C464FF0300A01E0237893B10134C9
:1021800083B1252B15D0B2683168501CB0608B54D8
:10219000D6E901319942F0D33046FFF71FFF23788B
:1021A000002BECD1337B002B40F0948005B0BDE8D0
:1021B000F08F0027234614F8012B2D2A63D0302AF4
:1021C00064D02B2A58D02A2A63D0A2F130010929E1
:1021D0004FF000050BD805EB850502EB450513F81C
:1021E000012FA2F130010929A5F13005F3D92E2ADA
:1021F0001C4659D0002301E014F8012F02F0FB0126
:102200006829F9D0252A00F03E81583AD1B2202918
:1022100030D8202A2ED8DFE812F021002D002D0022
:102220002D002D002D002D002D002D002D002D0046
:102230009E0063002D002D002D002D0063002D0059
:102240002D002D002D002D002D00B2002D002D00A1
:10225000EF002D0027012D002D002100D8F80000EF
:10226000102201680430CDE90057C8F8000030465C
:10227000FFF7D0FE013480E7234614F8012B2D2A06
:1022800047F004079BD147F0010793E747F00207A7
:1022900090E7D8F80020111DC8F8001015685A788A
:1022A0002E2A03F10104A5D16278A2F13003092B93
:1022B00004F101044FF00003A0D803EB830302EB09
:1022C000430314F8012FA2F130010929A3F13003CF
:1022D000F3D993E7304605B0BDE8F04FFFF77EBE77
:1022E000D8F80020D2F800B00432C8F800208BEAF9
:1022F000EB72A2EBEB72092A40F37D81DFF804C395
:10230000012011466329ACFB02E200F101004FEA13
:10231000D202F6DC9842024638BF1A460292002DDD
:1023200040F0BD80B80700F130810025BBF1000FFF
:10233000C0F20E817A0700F11E8107F00302022A23
:1023400000F03381CDE9005759460A223046FFF7A5
:1023500061FE013411E7D8F80030B26818783168AE
:102360000433C8F80030531CB3608854D6E90131F7
:102370009942FFF47FAF3046FFF730FE7AE7D8F896
:102380000020B36831681768101D5A1CC8F8000097
:10239000B26001F803A0D6E90123934280F02481C2
:1023A000591C3268B1607821D154D6E90123934297
:1023B00080F015810F2F03D93A4612090F2AFCD855
:1023C0004FF0805506E00F2D4FEA15127FF652AF01
:1023D000B36815465A1CB2603268B7FBF5F119F8BC
:1023E0000100D05405FB1177D6E901319942EAD3B7
:1023F0003046FFF7F3FDE6E7D8F800301A1DC8F8BD
:10240000002017F00107D3F800B069D09BF8000056
:10241000002800F0F280B1685F46CBF101024B1C4E
:10242000B36033685854D6E90131994202EB070B87
:102430001ED217F8010F0028F1D15D457FF61AAFC3
:10244000202702E05D453FF415AFB2683368511CA8
:10245000B1609F54D6E90131994205F1FF35F1D3BE
:102460003046FFF7BBFDEDE7D8F800000A22F8E69A
:1024700030460292FFF7B2FD17F8010F0028DCD0BA
:10248000B168029ACBE7B3683168581CB060CA548F
:10249000D6E901319942FFF4EDAE6CE77047BBF12C
:1024A000000F01DB7A0700D5013DB80769D4F907B1
:1024B0003FF53CAF002D3FF438AF20220299A942EE
:1024C000BFF434AFB168481CB06030684254D6E9FC
:1024D0000101814205F1FF355ED2002DEED124E7E6
:1024E000BBF1000F03D058461BF09AFF0746BD42D0
:1024F00013D9202201E0BD420FD0B1683368481CD7
:10250000B0605A54D6E90131994205F1FF35F2D352
:102510003046FFF763FD2022EDE79BF80030002BEB
:102520003FF4A8AEB1683268481CB0605354D6E995
:102530000131994204D21BF8013F002BF3D199E6F7
:102540003046FFF74BFD1BF8013F002BEAD191E627
:10255000B1683268481CB060CBF1000B2D2050549C
:10256000D6E901219142FFF4E8AE30460393FFF72C
:1025700035FD039BE1E6B1683268481CB0602B2052
:10258000EDE7002B3FF4D2AE91E7002B3FF4CEAE47
:10259000F9073FF5CBAEC8E630460393FFF71EFDC3
:1025A000039B2022002D89D1BFE6002B7FF4CAAE09
:1025B000FDB1029AAA42BFF4C5AEB1683268481CA8
:1025C000B06002F801A0D6E90121914205F1FF3582
:1025D000EED330460393FFF701FD039BE8E7304657
:1025E000FFF7FCFCB368E5E63046FFF7F7FCB3689D
:1025F000D6E60025A6E601208CE683461DE700BF4F
:10260000A44A0600CDCCCCCC2DE9F04FDFF8A09148
:1026100000EB400609EBC60683B0F76A012F80463F
:102620008B4692464FEA400407D0022F49D03FB371
:102630000027384603B0BDE8F08FB76A756AAF422D
:102640007AD9013F7F1B366A574528BF5746721B10
:1026500097427BD208F1010303EB430309EBC30369
:10266000594658683A4628441BF035FE444409EB65
:10267000C4093D443846C9F8245003B0BDE8F08F82
:10268000B36A756AAB429CBF326A9B18013B5B1B05
:102690009A45CED8044409EBC40400F10108266A27
:1026A000771B08EB4808BA4509EBC8096ED2D9F880
:1026B00004005246284455441BF00DFE57466562FF
:1026C000B7E700F1010808EB4808756A4FEAC80847
:1026D0000027B26AAA4202F1FF3422D9621B346A8F
:1026E000524509EB0801A4EB050428BF5246944269
:1026F000486828BF14462844594622461BF0EBFD83
:10270000336A25449D42AAEB040A2744A3440DD012
:102710007562BAF1000F8CD0B26AAA4202F1FF349E
:10272000DCD8346A2244013A521BD9E7002575628D
:10273000BAF1000FCDD17CE7366A3744013F7F1BE9
:10274000574528BF5746721B974283D308F1010AA9
:102750000AEB4A0A09EBCA0A5946DAF80400019260
:1027600028441BF0B8FDBE1B019ADAF8040035447A
:102770000BEB02012A461BF0AEFD444409EBC409F1
:102780003846C9F8245003B0BDE8F08FD9F80400EA
:10279000284455443A46AD1B1BF09DFD0BEB070149
:1027A000D9F804002A461BF096FD5746656240E7BB
:1027B000FCF6002010B5114C114A12490220C4E960
:1027C00004001148C4E906204FF4007020620F484D
:1027D0000023C4E912201022E01DA3626362E362B9
:1027E000A3656365E36522651BF0D1FD08492046BA
:1027F0001BF0CDFD2023A37110BD00BFFCF600200F
:10280000B44A0600C04A060084F7002074F700208E
:10281000C44A06002DE9F04FADF61C0D01220DF55E
:10282000836B002306920322CBF8043006A90DF235
:1028300014451346580083EA000412F0800F41F853
:10284000043F84F01B0240F02481A9422246E3B2F7
:10285000F0D1032301221946580080EA030411F045
:10286000800F4BF8232084F01B0140F00B810132D4
:10287000B2F5807F2146E3B2EED18A4B02220120DD
:10288000C3E9000204210822C3E902121024202215
:10289000C3E9044240258022C3E9065282491B262F
:1028A0003622C3E908626323804E0B70002386F84A
:1028B00063305D460C46884655F8043F06AAC3F1CE
:1028C000FF0352F82310CA1142EA41025FFA82FE66
:1028D000C2F3C01242EA4E025FFA82FCC2F3C01297
:1028E00042EA4C02D7B2C2F3C01343EA4703DBB259
:1028F0004B4083EA0E0383EA0C037B4083F06303BF
:1029000004F8013FF0540130B0F5807FD4D1DBF8FA
:1029100038300293DBF82430654D0393654B2B6010
:1029200003F13E43644C6548654A664E03F5C54372
:102930005F33236003F5C50303F5BD433E330360F6
:1029400003F1C54303F5BD0303F578531360DBF8CA
:1029500034300493DBF82C300593414611F8017FA5
:1029600017F0800F14BF4FF01B0C4FF0000C8CEAD7
:10297000470C3B045FFA8CFC43EA072383EA0C0311
:1029800087EA0C0743EA07634FEA336745F8043FD9
:1029900044F8047F8E424FEA33474FEA332340F82E
:1029A000047F42F8043FD9D1474E484CDFF82C81D0
:1029B000DFF82CE1464F474D019658E05BF82320A5
:1029C000049B0399059ED318501885FB031C02999C
:1029D0000CEB030A1144324485FB006C0CEB00093C
:1029E0004FEAE37CCCEBEA1CCCEB0C2CA3EB0C0306
:1029F0004FEAE07CCCEBE91C06AECCEB0C2CA0EB58
:102A00000C0056F8233056F820001B0483EA0023FC
:102A100085FB016000EB010CC817C0EBEC10C0EBAC
:102A20000020091A06A850F821104B4085FB02012E
:102A30008818D117C1EBE011C1EB0121521A06A988
:102A400051F8222083EA02634FEA33624EF8042FE2
:102A50004FEA334247F8042F48F8043F4FEA332344
:102A6000019A42F8043F1C4B0192A34216D014F87D
:102A7000013F002BA2D148F8043F4EF8043F47F82D
:102A8000043FEDE70132B2F5807FCBB27FF4E4AED4
:102A9000F3E6A942D3B27FF4CDAEDAE60DF61C0D13
:102AA000BDE8F08F840A012084F90020AC0A0120DF
:102AB00084FA0020C66363A584FE002084020120FE
:102AC0008406012083FA0020A8170120AB0A012008
:102AD000A813012081808080AB0B0120A80B01206E
:102AE000A80F0120F0B5CB68D1F800C04C68D1F830
:102AF00008E0DA0FD2001CEB0C0C4FF08701C2F19A
:102B0000080241FA02F244EB04011EEB0E0E82EAC7
:102B10000C0C81EAE2724EEAD47143EB030E0023FF
:102B20001E464FEA1C2444EA02646CF307060F0AAF
:102B300064F30F261D461C4647EA0E6761F3070340
:102B400067F30F234FEA1C4747EA02474FEA1C6C22
:102B50004CEA022C67F317466CF31F6662F3070515
:102B60000660160A66F30F250E0C46EA0E46090E9D
:102B700066F3174341EA0E2161F31F636EF3070406
:102B800083604FEA1E2363F30F24130C63F317458E
:102B90004FEA1E4363F31744120E4FEA1E6362F3BB
:102BA0001F6563F31F644560C460F0BD4FF48C7211
:102BB00000211BF0B9BB00BF18B14FF48C7107F0B6
:102BC00049B9704710B54FF48C72002104461BF0D0
:102BD000ABFB4FF48C72A0180021BDE810401BF035
:102BE000A3BB00BF60B110B54FF48C71044607F071
:102BF00031F94FF48C716018BDE8104007F02AB924
:102C0000704700BF2DE9F04FC02A83B015468046BB
:102C100009D0B2F5807F46D0802A31D06FF01F00F6
:102C200003B0BDE8F08F0C230360C84C23686BB37E
:102C300008F10804C8F804404FEA551CA4F1040E3A
:102C400000228B784F780E78CD781B0443EA072357
:102C50003343013243EA056394454EF8043F01F1E2
:102C60000401EED8D8F800300C2B1FD00E2B00F04A
:102C700073810A2B00F0C181002003B0BDE8F08F02
:102C8000B24C0A2303602368002BD1D10191FFF7D6
:102C9000C1FD0123236008F108040199C8F804402C
:102CA0004FEA551CCAE70E230360BEE76169A84AD4
:102CB000DFF8A0C220686368D4F808E0D4F810A058
:102CC000DCF80470C1F3072512F80580DCF8005029
:102CD0004540080E85EA0805105C85EA0045C8B243
:102CE000105C85EA0065C1F30740105C85EA0025A9
:102CF0006B40E0688EEA03067040C4E908608AEA27
:102D000000067140C4E90653C4E90A61C1F307260D
:102D10007D40965DDCF8087075400E0E965D85EA84
:102D20000645CEB2965D85EA0665C1F30746965D17
:102D300085EA06258EEA050E8AEA0E066B4081EAD0
:102D40000608C4E90C5380EA0E09C4F83C90C8F3A5
:102D50000729C4F838E02664C4F8448012F80990C2
:102D60007D4089EA05054FEA186912F8099085EA5D
:102D700009455FFA88F9C8F3074812F8099012F874
:102D8000088085EA096585EA08256B405840464079
:102D9000C4E91253A66581EA00088EEA0306266597
:102DA000C8F307266065C4F85C8012F80690DCF86A
:102DB0000C606E404FEA186589EA0606555D86EAA2
:102DC00005465FFA88F5555D86EA0566C8F307454E
:102DD000555D86EA05268AEA060788EA07088EEA2C
:102DE000060E7340C4E91863C4E91C7880EA0E0536
:102DF000E566C8F30725C4F868E012F80590DCF82A
:102E0000105075404FEA186689EA0505965D85EA17
:102E100006455FFA88F6C8F30748965D85EA0665B9
:102E200012F8086085EA06256B4058408EEA0306D2
:102E30005940C4E91E53C4F8806087EA0006C4F80C
:102E40008860C1F30726C4F88400C4F88C1012F817
:102E50000690DCF81460754089EA05090D0E555D91
:102E600089EA0549CDB2555D89EA0569C1F307458F
:102E7000565D89EA06298EEA090587EA050E83EA86
:102E80000903C4E9249381EA0E0880EA0506C4F820
:102E90009C60C8F30726C4F89850C4F8A0E0C4F8B2
:102EA000A48012F806A0DCF81860DCF81CC089EADF
:102EB00006098AEA09064FEA186912F8099086EAB3
:102EC00009465FFA88F9C8F3074812F8099012F822
:102ED000088086EA096686EA082673405840414021
:102EE000C4F8A86086EA0C0685EA030CC4F8B0C0F2
:102EF0008EEA000EC1F3072CC4F8AC30C4F8B4005D
:102F0000C4F8BC10C4F8B8E012F80CC08CEA06068D
:102F10004FEA116C12F80CC086EA0C465FFA81FC8D
:102F200012F80CC086EA0C66C1F3074C12F80C20AC
:102F300086EA022255405740534068407940C4E930
:102F40003023C4E93250C4E9347195E6AC1B01204A
:102F500084F90020840A0120DFF82483E1692568D0
:102F6000C54BD4E905CED4E9030AD4E9016708F1D9
:102F70001C09C1F3072258F804BF9A5C85EA0B05C7
:102F800055400A0EC1459A5C85EA0245CAB29A5C70
:102F900085EA0265C1F307429A5C85EA022586EA62
:102FA000050687EA060780EA0700C4E90856C4E96F
:102FB0000A70C2B29A5C82EA0A024FEA106A13F8F7
:102FC0000AA082EA0A62C0F3072A13F80AA082EA7A
:102FD0000A22C0F3074A13F80AA082EA0A4A8CEAD6
:102FE0000A0C8EEA0C0E81EA0E01C4E90CACC4E9AD
:102FF0000EE104F12004BCD13EE6E3689E499F4EF9
:1030000062683568D4F808C0C3F307200F5C2068F5
:1030100045406F401D0E70684D5D87EA0547DDB283
:103020004D5D87EA0567C3F307454D5D87EA0527D0
:103030007A4082EA0C056B40C4E90472C4E9065385
:10304000C3F3072547404D5D7D401F0ECF5D85EAE8
:103050000745DFB2CF5D85EA0765C3F30747CF5D5C
:1030600085EA07258CEA05006A40C4E9085280EA2F
:10307000030ECEF30727A062C4F82CE011F807C0B6
:10308000B7687D404FEA1E678CEA050511F807C056
:1030900085EA0C4C5FFA8EF5CEF3074E4D5D8CEA57
:1030A000056C11F80E508CEA05277A405340C4E9AC
:1030B0000C7282EA0005A563C3F30725E36311F8E8
:1030C00005C0F5684FEA136E6F408CEA070511F8EA
:1030D0000E7085EA0745DFB2CF5D85EA0765C3F369
:1030E0000747CF5D85EA072568406A40C4E910526A
:1030F00083EA000ECEF30727A064C4F84CE011F871
:1031000007C037697D404FEA1E678CEA050511F854
:1031100007C085EA0C4C5FFA8EF5CEF3074E4D5D85
:103120008CEA056C11F80E508CEA05277A40C4E948
:103130001472534080EA0205A565C3F30725E365D1
:1031400011F805C075696F408CEA07051F0ECF5D49
:1031500085EA0745DFB2CF5D85EA0765C3F3074718
:10316000CF5D85EA072568406A40C4E9185283EAC2
:10317000000ECEF30727A066C4F86CE011F807C074
:10318000B7697D404FEA1E678CEA050511F807C054
:1031900085EA0C4C5FFA8EF5CEF3074E4D5D8CEA56
:1031A000056C11F80E508CEA05277A40534080EAEE
:1031B0000205C4E91C72A567C3F30725E36711F88C
:1031C00005C0F5696F408CEA07051F0ECF5D85EAE3
:1031D0000745DFB2CF5D85EA0765C3F30747CF5DDB
:1031E00085EA072568406A40C4E9205283EA000C5A
:1031F000CCF30727C4F88800C4F88CC011F807E0A6
:10320000376A766A7D404FEA1C6785EA0E05CF5D16
:1032100085EA07455FFA8CF7CCF3074CCF5D85EA6A
:10322000076511F80C7085EA07256A405340C4F819
:103230009050754080EA0206C4F89860C3F30726F0
:10324000C4F89420C4F89C308E5D75401E0E8E5DCF
:1032500085EA0645DEB28E5D85EA0665C3F307465C
:10326000895D85EA012148404A404340C4E928126B
:10327000C4E92A0300E500BF84F90020840A012084
:10328000800A01202DE9F04FC9B0044616460D46CC
:103290004FF48C72002102A81BF046F804F10803D9
:1032A00063603246294602A8FFF7ACFC0090002874
:1032B00040F0C380DDF808E00399C4F800E04FEA6D
:1032C0000E130EF1FF32CB58A36001EB0E11002A52
:1032D0004B68E3608B682361CB680192636104F102
:1032E00018089446A1F1100940F3978004F12802D0
:1032F000564F574B574E584D584C203908695FFA76
:1033000080FA103213F80AA057F82AB04FEA106A70
:10331000103913F80AA056F82AA08BEA0A0AC0F35B
:10332000072BC0F3074013F80BB0185C55F82BB00F
:1033300054F820008AEA0B0A8AEA000042F8200CBE
:10334000486A5FFA80FABCF1010C13F80AA057F83A
:103350002AB04FEA106A13F80AA056F82AA08BEA9E
:103360000A0AC0F3072BC0F3074013F80BB0185C30
:1033700055F82BB054F820008AEA0B0A8AEA0000BC
:1033800042F81C0C886A5FFA80FA13F80AA057F812
:103390002AB04FEA106A13F80AA056F82AA08BEA5E
:1033A0000A0AC0F3072BC0F3074013F80BB0185CF0
:1033B00055F82BB054F820008AEA0B0A8AEA00007C
:1033C00042F8180CC86A5FFA80FA13F80AB04FEA9C
:1033D000106A13F80AA057F82BB056F82AA08BEA07
:1033E0000A0AC0F3072BC0F3074013F80BB0185CB0
:1033F00055F82BB054F820008AEA0B0A8AEA00003C
:1034000042F8140C7FF47AAF019BCEEB0E7E09EBF1
:103410000E1908EB031809F11009D9F80030C8F8A3
:103420000030D9F80430C8F80430D9F80830C8F8AA
:103430000830D9F80C30C8F80C3002A84FF48C7161
:1034400006F008FD009849B0BDE8F08FAC0B0120F4
:1034500084F90020AC170120AC0F0120AC1301202F
:1034600030B51346B3F5807F0D4683B004464FEA6E
:1034700052024FEA131102D0B3F5007F10D1294454
:1034800004F58C700192FFF7BDFB08B103B030BDAD
:10349000019A2946204603B0BDE83040FFF7B2BB91
:1034A0006FF01F00F2E700BF30B51346B3F5807F21
:1034B0000D4683B004464FEA52024FEA131102D080
:1034C000B3F5007F10D1294404F58C700192FFF709
:1034D00099FB08B103B030BD019A2946204603B0DC
:1034E000BDE83040FFF7CEBE6FF01F00F2E700BF2F
:1034F0002DE9F04F446800680B684D688FB04010AC
:10350000461E0693CDE90426226888685340CDE91B
:103510000635CA6861686940CDE90710A56868404A
:10352000CDE90802E568002E82EA050204F11005E3
:10353000CDE90265099240F3D981DFF8A0A3E34EFB
:10354000E34D019304F1300CE24C5746A646DDF8FA
:1035500004905CF8203C5FFA89F44FEA126856F850
:10356000244057F828805C4084EA0804C1F3072807
:103570004FEA19695EF8288057F8299084EA080410
:10358000C0F307485FFA80FA55F8288084EA0804F7
:103590005FFA81F80A945CF81C3C56F8288088EAA7
:1035A000030888EA0908C0F30729019B5EF82990FF
:1035B00088EA0908C2F307490CF1200C55F8299054
:1035C00088EA09084FEA106956F82A0057F829A036
:1035D000CDF82C804FEA1169C1F3074157F82990C3
:1035E00055F821B05CF8381C4840C2F3072180EA46
:1035F00009005EF821104840C3F30741D2B255F8E4
:10360000211056F822204840C3F307230C905EF89F
:1036100023105CF8343C82EA030989EA0A0989EA42
:10362000010989EA0B09E3B24FEA196256F823301F
:1036300057F82220CDF834905340C8F30722C0F346
:10364000072A5EF822105CF8302C5340C0F3074282
:103650004B4055F8222053405FFA88F201930693BD
:1036600056F82210220E57F8222051405CF82C2CDC
:1036700051405EF82A205140C9F3074255F82220F4
:103680005140C2B2000E56F8222057F820B00791E0
:103690004FEA1860C8F3074857F820005CF8283C48
:1036A00082EA000AC9F307205FFA89F955F8282051
:1036B00056F829805EF82000C4F307498AEA030A15
:1036C00055F82990029B8AEA0000C4F3072480EA97
:1036D000090008905EF824905CF8244C88EA0B08F6
:1036E00088EA040484EA09046240013B09920293D7
:1036F0007FF42DAFBA46039F019BBC46059F0CEBA0
:103700004717744603975FFA83FC4FEA126E56F828
:103710002CC05AF82EE03F688CEA0E0CC1F3072E3D
:103720008CEA070C54F82EE0039F8CEA0E0CC0F3D1
:10373000074E5FFA80F955F82EE08CEA0E0C5FFA1E
:1037400081FECDF828C056F82E807F684FEA136EB0
:103750005AF82EE088EA0E0EC0F307288EEA070E0C
:1037600054F828808EEA080EC2F3074855F82880DE
:103770008EEA080E4FEA106856F82900CDF82CE0C2
:103780004FEA1169C1F307415AF829705AF82880A5
:10379000C2F30729D2B2784055F8217056F82210AA
:1037A000039A54F8296092685040C3F3074270406E
:1037B00055F82220039E5040C3F307230C9054F881
:1037C0002320F36881EA0801594051407940424B77
:1037D0000D910C0E5FFA8CF21D5D9A5C34696240AB
:1037E000CEF3072482EA05621C5D82EA0422C0F35C
:1037F00007444FEA1C691C5D82EA044206925FFAA4
:103800008EF4039D1C5D6D694FEA106A5FFA80F8C3
:103810006C40C0F3072013F8095013F8088013F820
:103820000A9084EA05641D5C03984FEA1E6680696D
:103830009E5D88EA0000CFB280EA06660398DF5DED
:10384000C069CEF3074E4740C1F3072084EA052440
:1038500013F80E50C1F3074E195C86EA012613F8DF
:103860000E1084EA0144CCF3072187EA0969CCF3FE
:10387000074C5F5C13F80C10079489EA072383EA6E
:103880000543049D100A2A706870100C120EEA702D
:10389000220A86EA01416A71220C2C71AA71240E57
:1038A0000A0ACDE9081329722B73A870EC716A72A9
:1038B0000A0C1C0AAA72090E1A0C1B0EE97206A841
:1038C0006C73AA73EB7320210AE000BF84FA002016
:1038D0008402012084FE002084F900208406012057
:1038E00006F0B8FA00200FB0BDE8F08F034EDFF805
:1038F00018A0034C034D039F05E700BF84FA002086
:1039000084FE002084020120840601202DE9F04F6E
:10391000446800680B688DB040100493461E206810
:10392000CDE901264A684340CDE9043265688868DC
:10393000C9686A40CDE90520A5686840CDE906015F
:10394000E568002E81EA0501079104F1100B40F3B0
:10395000EE81DFF8C4A3EC4FEC4DCDF80CB0B646C9
:10396000EB4E009304F1300CF3465446DDF800A012
:103970005CF8203C5FFA8AFE4FEA126857F82EE0A6
:1039800054F828808EEA030E8EEA080EC1F3072849
:103990004FEA106956F8288054F829908EEA080EEC
:1039A000C0F30748BBF1010B55F828808EEA080EDA
:1039B0005FFA82F8CDF820E05CF81C3C57F82880CC
:1039C00088EA030888EA0908CAF307295FFA80FA37
:1039D00056F8299088EA0908C1F307490CF1200C30
:1039E00055F8299088EA0908C0F3072957F82A00F2
:1039F000CDF824804FEA116AC9B254F82A3057F83A
:103A000021A05CF8381C56F8299080EA0100C2F326
:103A1000072180EA030056F82110009B80EA01008C
:103A2000C3F307414FEA136355F8211080EA010000
:103A30000A9054F823105CF8343CC2F307428AEA37
:103A4000030355F8222081EA03015FFA8EF381EA2D
:103A5000090181EA020157F823200B914FEA18630C
:103A6000CEF3072A54F8233083EA0203C1F3072276
:103A700056F822905CF8302C83EA0203C0F3074228
:103A800083EA090355F8222083EA02035FFA88F2E9
:103A90000093049357F822904FEA106254F82220C2
:103AA00089EA02095CF82C2C89EA020256F82A906D
:103AB00082EA0902C1F307495FFA80FA55F82990B2
:103AC00082EA0902C0F3072957F82A0005924FEA53
:103AD000116A5CF8283C54F82AA056F8299080EA2C
:103AE0000A0AC8F307208AEA030A56F820008AEA7D
:103AF0000000CEF3074AC9B255F82AA057F82110A2
:103B00004FEA1E6E80EA0A0054F82EE006905CF838
:103B1000243CC8F3074881EA0E0155F8288081EA61
:103B2000030181EA090181EA080107917FF41EAFD0
:103B3000DDF80CB0009BA246029C0BEB441B5FFA25
:103B400083FC4FEA126E57F82CC05AF82EE0DBF8CF
:103B500000408CEA0E0CC1F3072E8CEA040C56F8D8
:103B60002EE08CEA0E0CC0F3074E4FEA116955F8AF
:103B70002EE08CEA0E0C5FFA82FECDF820C057F8DA
:103B80002E80DBF804404FEA106E5AF82EE088EAE7
:103B90000E0EC3F307288EEA040E56F828808EEA2C
:103BA000080EC1F30748C9B255F8288057F821100C
:103BB0008EEA080E5FFA80F8C0F3072057F82880D5
:103BC0005AF82970CDF824E088EA0708C2F30727DD
:103BD000C2F3074256F8200056F8277055F82260C5
:103BE000DBF8082088EA0208C3F307421B0E55F8E9
:103BF00022505AF8233088EA07077D400A95594039
:103C0000DBF80C305FFA8CF25940424B4840704070
:103C1000995C0B904FEA1E624FEA156A9C5CDBF8D8
:103C200010205140C0F3072281EA04619A5CDBF85E
:103C3000144081EA0221C5F307425FFA85F99A5CD4
:103C400081EA02415FFA8EF204919A5C5FFA80F891
:103C5000070E6240C0F3074013F80A40DF5D13F817
:103C6000088082EA046213F8094013F80090DBF838
:103C70001800604080EA0767DBF81C0088EA00084B
:103C8000CCF307204FEA1C661C5C9E5D82EA04228E
:103C9000CEF30724CCF3074CC5F307251C5D13F8BE
:103CA0000C005D5DCEF3074E87EA042788EA0666BE
:103CB000019C86EA052613F80E50217087EA00431E
:103CC000080A82EA09426070080C090EE170110AC4
:103CD00086EA05460592227161714FEA1269110C5C
:103CE0001A0ACDE906362372A1716272310A1A0CE2
:103CF0001B0EA070A272E372320C330E04A8617323
:103D00002021A273267309E0AC0B0120AC13012023
:103D1000AC0F0120AC0A0120AC17012084F80790F9
:103D2000E37306F097F800200DB0BDE8F08F034F65
:103D3000DFF814A0024E034D01E700BFAC0B0120D9
:103D4000AC0F0120AC130120AC1701208C46BCF154
:103D5000010F11461A4601D0FFF7D8BDFFF7C8BBC7
:103D600012F00F0F40F019812DE9F043074685B09E
:103D700089461D46002900F08F80002A00F0098145
:103D80000C9B0D9C03F1100604EB02080CE0FFF7FE
:103D9000BDFD10222146284614441AF09CFA4445E1
:103DA00006F1100600F0F580297816F8103C4B401B
:103DB0002370687816F80F3C4340637095F802C092
:103DC00016F80E3C83EA0C03A37095F803C016F8AE
:103DD0000D3C83EA0C03E37095F804C016F80C3C24
:103DE00083EA0C03237195F805C016F80B3C83EAAF
:103DF0000C03637195F806C016F80A3C83EA0C03BD
:103E0000A37195F807C016F8093C83EA0C03E37127
:103E100095F808C016F8083C83EA0C03237295F85D
:103E200009C016F8073C83EA0C03637295F80AC0D0
:103E300016F8063C83EA0C03A37295F80BC016F83B
:103E4000053C83EA0C03E37295F80CC016F8043CB9
:103E500083EA0C03237395F80DC016F8033C83EA3C
:103E60000C03637395F80EC016F8023C83EA0C034A
:103E7000A37316F8013C95F80FC0B9F1010F83EA5E
:103E80000C03224621463846E37380D12246214660
:103E90003846FFF72DFB7CE7002A7AD0DDE90C637A
:103EA00003F1100406EB02083146102268461AF0AE
:103EB00012FAA4F1100231463846FFF727FD2B789D
:103EC00014F8101C14F80F2C4B4004F8103C6978BF
:103ED00014F80E3C4A4004F80F2CA97814F80D2C65
:103EE0004B4004F80E3CE97814F80C3C4A4004F8C6
:103EF0000D2C297914F80B2C4B4004F80C3C6979F3
:103F000014F80A3C4A4004F80B2CA97914F8092C3F
:103F10004B4004F80A3CE97914F8083C4A4004F89C
:103F2000092C297A14F8072C4B4004F8083C697ACC
:103F300014F8063C4A4004F8072CA97A4B4004F8D0
:103F4000063CE87A14F8053C14F8041C434004F8D5
:103F5000053C287B14F8033C414004F8041C687BB2
:103F600014F8021C434004F8033CA87B14F8013CFD
:103F7000414004F8021CE87B1022434004F8013C55
:103F80001644694628461AF0A6F9464504F110047D
:103F90008AD1002005B0BDE8F0836FF021007047A2
:103FA0002DE9F04F8FB088461946D54B0192144643
:103FB000103A9A4200F2CB82824602AA00F58C7037
:103FC000FFF796FA0646002840F0D981199B03F1C5
:103FD0001005189B270904F00F09013F03F1100495
:103FE000B9F1000F03D058EA070300F0D0819DF823
:103FF000082014F8103C009453408DF828309DF8A8
:10400000092014F80F3C53408DF829309DF80A2000
:1040100014F80E3C53408DF82A309DF80B2014F80C
:104020000D3C53408DF82B309DF80C2014F80C3CBF
:1040300053408DF82C309DF80D2014F80B3C534064
:104040008DF82D309DF80E2014F80A3C53408DF861
:104050002E309DF80F2014F8093C53408DF82F3076
:104060009DF8102014F8083C53408DF830309DF82E
:10407000112014F8073C53408DF8313014F8063CF9
:104080009DF8122053408DF832309DF8132014F81B
:10409000053C53408DF833309DF8142014F8043C4F
:1040A00053408DF834309DF8152014F8033C5340EC
:1040B0008DF835309DF8162014F8023C53408DF8E9
:1040C00036309DF8172014F8013CB8F1010F83EA4F
:1040D00002030AAA8DF837301146504600F053818A
:1040E000FFF714FC0646002E40F049819DF8082099
:1040F0009DF82830534005F8103C9DF809209DF8A4
:104100002930534005F80F3C9DF80A209DF82A30CD
:10411000534005F80E3C9DF80B209DF82B30534082
:1041200005F80D3C9DF80C209DF82C30534005F807
:104130000C3C9DF80D209DF82D30534005F80B3CAC
:104140009DF80E209DF82E30534005F80A3C9DF84E
:104150000F209DF82F30534005F8093C9DF81020A2
:104160009DF83030534005F8083C9DF811209DF82B
:104170003130534005F8073C9DF812209DF832304D
:10418000534005F8063C9DF813209DF8333053400A
:1041900005F8053C9DF814209DF83430534005F88F
:1041A000043C9DF815209DF83530534005F8033C3C
:1041B0009DF816209DF83630534005F8023C9DF8D6
:1041C00017209DF8373002A9534005F8013C013F04
:1041D0000846FEF787FC7B1CAB4604F1100405F192
:1041E00010057FF4FDAEB9F1000F00F0C880B8F102
:1041F000000F00F0D6800446009B0BF10302D21A98
:10420000062AABF1100040F2D38009F1FF32032AF5
:1042100040F2CE805BF8102CCBF8002021681A68A1
:104220004A404FEA990101290A9212D05BF80C2CFE
:10423000CBF804205A686568032982EA05020B92CC
:1042400007D15BF8082CCBF808209A68A1684A408F
:104250000C92019B03F00C02914523D0815C0BF87A
:104260000210009BA55C995C69400EAD154405F8F1
:10427000101C511C894515D9455C0BF80150675C31
:104280005D5C7D400EAF02323944914501F8105C0F
:1042900008D9815C0BF80210A15C9D5C3A4469402E
:1042A00002F8101CC9F10F02022AC9F1100129D924
:1042B000A9F1100254F809705BF802500AAB4FEAFA
:1042C000910E7D40BEF1010F43F809505A4404EBB2
:1042D000090C03EB09070DD05568DCF80430BEF17A
:1042E000030F85EA03057D6004D19268DCF808506D
:1042F0006A40BA6021F003028A42914422D001E070
:10430000F0FFFF0010F8091014F809200EAB4A4026
:1043100003EB0901B9F10F0F01F8102C09F10102AB
:1043200010D0A15C855C1A446940B9F10E0F02F807
:10433000101C09F1020205D0805CA15C1A444140C6
:1043400002F8101C0AAAB8F1010F504611462AD0F3
:10435000FFF7DCFA50BB0A99226860684A404BF8C4
:10436000102C0B9AA16850404BF80C0C0C98E2688A
:1043700041400D984BF8081C42404BF8042C304645
:104380000FB0BDE8F08FFFF7B3F80646ABE602A921
:10439000102206A819F09FFF02A90846FEF7A2FB0B
:1043A00025E606AC28E7FFF7A3F8D3E70646E6E7DD
:1043B0001BF8102C009B8BF8002019782278B9F19B
:1043C000010F82EA01028DF828203FF46BAF1BF841
:1043D0000F2C8BF8012059786278B9F1020F82EA2C
:1043E00001028DF829203FF45DAF1BF80E2C8BF8ED
:1043F00002209978A278B9F1030F82EA01028DF8C0
:104400002A203FF44FAF1BF80D2C8BF80320DA78ED
:10441000E178B9F1040F82EA01028DF82B203FF414
:1044200041AF1BF80C2C8BF804201A792179B9F1D3
:10443000050F82EA01028DF82C203FF433AF1BF800
:104440000B2C8BF805205A796179B9F1060F82EAB5
:1044500001028DF82D203FF425AF1BF80A2C8BF8B4
:1044600006209A79A179B9F1070F82EA01028DF845
:104470002E203FF417AF1BF8092C8BF80720DA79B0
:10448000E179B9F1080F82EA01028DF82F203FF49B
:1044900009AF1BF8082C8BF808201A7A217AB9F199
:1044A000090F82EA01028DF830203FF4FBAE1BF8C1
:1044B000072C8BF809205A7A617AB9F10A0F82EA3F
:1044C00001028DF831203FF4EDAE1BF8062C8BF87D
:1044D0000A209A7AA17AB9F10B0F82EA01028DF8CB
:1044E00032203FF4DFAE1BF8052C8BF80B20DA7A74
:1044F000E17AB9F10C0F82EA01028DF833203FF422
:10450000D1AE1BF8042C8BF80C201A7B217BB9F15F
:104510000D0F82EA01028DF834203FF4F3AE1BF850
:10452000032C8BF80D205A7B617BB9F10F0F82EAC7
:1045300001028DF835207FF4E5AE1BF8022C8BF8D4
:104540000E20997BA27B4A408DF83620DAE66FF088
:10455000210614E72DE9F0471C68089D0F2CDDE9C2
:1045600009674DD89946824629BBFAB106EB020885
:104570002A46294650466CB9FEF7BAFF16F8012BB9
:104580002B78464583EA020307F8013B4FF001040C
:104590002A7033D02B5D16F8012B611C5340464521
:1045A00007F8013B2A5501F00F04E1D1C9F800409A
:1045B0000020BDE8F08706EB0208002AF6D02A4664
:1045C000294650466CB9FEF793FF16F8013B2A784E
:1045D000464583EA020307F8013B4FF001042B70C4
:1045E0000CD02A5D16F8011B631C4A40464507F8AB
:1045F000012B2A5503F00F04E1D1D7E70124D5E7B9
:104600006FF02000D5E700BF2DE9F0471468089E41
:10461000099D0F2C20D8904681B181469A466F188B
:104620008CB11AF804C016F8010B8CEA000C05F8DE
:1046300001CB0134AF4204F00F04F1D1C8F80040BF
:104640000020BDE8F087524651464846FEF750FF2D
:104650000028E6D0BDE8F0876FF02000F1E700BF4A
:104660002DE9F84F1468DDF828B00F2CDDE90B6751
:104670007BD8914689B182461D4606EB01088CB174
:104680001BF804C016F8013B01348CEA030C4645C4
:1046900007F801CB04F00F04F1D1C9F80040002065
:1046A000BDE8F88F5A4629465046FEF721FFEB7BBE
:1046B0000133DBB2EB73002BE2D1AB7B0133DBB216
:1046C000AB73002BDCD16B7B0133DBB26B73002B44
:1046D000D6D12B7B0133DBB22B73002BD0D1EB7AFD
:1046E0000133DBB2EB72002BCAD1AB7A0133DBB200
:1046F000AB72002BC4D16B7A0133DBB26B72002B2F
:10470000BED12B7A0133DBB22B72002BB8D1EB79FF
:104710000133DBB2EB71002BB2D1AB790133DBB2E9
:10472000AB71002BACD16B790133DBB26B71002B19
:10473000A6D12B790133DBB22B71002BA0D1EB7802
:104740000133DBB2EB70002B9AD1AB780133DBB2D3
:10475000AB70002B94D16B780133DBB26B70002B04
:104760008ED12B7801332B708AE76FF0200097E70A
:104770004FF48472002119F0D7BD00BF18B14FF477
:10478000847105F067BB7047002370B5C0E9003342
:1047900000F1070C00F10805644604F8013F0133FD
:1047A000B3F5807FF9D14FF0000E00F20716734683
:1047B00072458CBF01EB0E0008461CF8014F0078D3
:1047C00023440344DBB288BF0EF1010EE85C8CF891
:1047D000000098BF4FF0010EB445EC54E8D170BD15
:1047E00070B5D0E90054F1B1561800F1080C511E13
:1047F00003F1FF3E013E0135EDB21CF805201444E3
:10480000E4B21CF804300CF8053013440CF8042012
:10481000DBB211F8012F1CF803308E4283EA020349
:104820000EF8013FE7D1C0E90054002070BD00BF81
:1048300041F24802002119F077BD00BF18B141F2E2
:10484000480105F007BB7047A2F12003B3F5D07F04
:1048500000F297848C4612F0070140F092842DE913
:10486000F04F00F5A258104F8FB04FEAD20E08F16A
:10487000080800F589667207A6F5806340F06E842B
